{
  "address": "0x3D63c50AD04DD5aE394CAB562b7691DD5de7CF6f",
  "abi": [
    {
      "inputs": [
        {
          "internalType": "address",
          "name": "_borrowerOperations",
          "type": "address"
        },
        {
          "internalType": "address",
          "name": "_hintHelpers",
          "type": "address"
        },
        {
          "internalType": "address",
          "name": "_troveManagerHelpers",
          "type": "address"
        }
      ],
      "stateMutability": "nonpayable",
      "type": "constructor"
    },
    {
      "inputs": [],
      "name": "HarvestaStaking__NotEnoughEther",
      "type": "error"
    },
    {
      "inputs": [],
      "name": "HarvestaStaking__SenderIsNotYieldManager",
      "type": "error"
    },
    {
      "inputs": [],
      "name": "HarvestaStaking__TroveIsActive",
      "type": "error"
    },
    {
      "stateMutability": "payable",
      "type": "fallback"
    },
    {
      "inputs": [],
      "name": "adjustTroveWithHint",
      "outputs": [],
      "stateMutability": "nonpayable",
      "type": "function"
    },
    {
      "inputs": [],
      "name": "borrowerOperations",
      "outputs": [
        {
          "internalType": "contract IBorrowerOperations",
          "name": "",
          "type": "address"
        }
      ],
      "stateMutability": "view",
      "type": "function"
    },
    {
      "inputs": [],
      "name": "hintHelpers",
      "outputs": [
        {
          "internalType": "contract IHintHelpers",
          "name": "",
          "type": "address"
        }
      ],
      "stateMutability": "view",
      "type": "function"
    },
    {
      "inputs": [
        {
          "internalType": "address",
          "name": "_asset",
          "type": "address"
        },
        {
          "internalType": "uint256",
          "name": "_collEther",
          "type": "uint256"
        },
        {
          "internalType": "uint256",
          "name": "_amountDebt",
          "type": "uint256"
        }
      ],
      "name": "openTrove",
      "outputs": [],
      "stateMutability": "nonpayable",
      "type": "function"
    },
    {
      "inputs": [
        {
          "internalType": "address",
          "name": "_asset",
          "type": "address"
        },
        {
          "internalType": "uint256",
          "name": "_collEther",
          "type": "uint256"
        },
        {
          "internalType": "uint256",
          "name": "_amountDebt",
          "type": "uint256"
        }
      ],
      "name": "openTroveWithHint",
      "outputs": [],
      "stateMutability": "nonpayable",
      "type": "function"
    },
    {
      "inputs": [],
      "name": "troveManagerHelper",
      "outputs": [
        {
          "internalType": "contract ITroveManagerHelpers",
          "name": "",
          "type": "address"
        }
      ],
      "stateMutability": "view",
      "type": "function"
    },
    {
      "stateMutability": "payable",
      "type": "receive"
    }
  ],
  "transactionHash": "0xbf10d23750db15b96637d9f2d24c26beaf0950b9f85a32fa4e6559d3a9574d3f",
  "args": [
    "0x9eB2Ce1be2DD6947e4f5Aabe33106f48861DFD74",
    "0x17244338034Bea1fA940779Bc769Ff01833406c4",
    "0xaAACB8C39Bd5Acbb0A236112Df8d15411161e518"
  ],
  "numDeployments": 1,
  "solcInputHash": "3a18fc732f283f76bc33c3639373b004",
  "bytecode": "0x608060405234801561001057600080fd5b50604051610a22380380610a228339818101604052810190610032919061015f565b826000806101000a81548173ffffffffffffffffffffffffffffffffffffffff021916908373ffffffffffffffffffffffffffffffffffffffff16021790555081600160006101000a81548173ffffffffffffffffffffffffffffffffffffffff021916908373ffffffffffffffffffffffffffffffffffffffff16021790555080600260006101000a81548173ffffffffffffffffffffffffffffffffffffffff021916908373ffffffffffffffffffffffffffffffffffffffff1602179055505050506101b2565b600080fd5b600073ffffffffffffffffffffffffffffffffffffffff82169050919050565b600061012c82610101565b9050919050565b61013c81610121565b811461014757600080fd5b50565b60008151905061015981610133565b92915050565b600080600060608486031215610178576101776100fc565b5b60006101868682870161014a565b93505060206101978682870161014a565b92505060406101a88682870161014a565b9150509250925092565b610861806101c16000396000f3fe6080604052600436106100595760003560e01c8063447c408f14610062578063486528291461008d57806377553ad4146100b657806378bef5ce146100e15780637d64b5c01461010c578063dd4624261461013557610060565b3661006057005b005b34801561006e57600080fd5b5061007761014c565b60405161008491906105bf565b60405180910390f35b34801561009957600080fd5b506100b460048036038101906100af9190610653565b610172565b005b3480156100c257600080fd5b506100cb610254565b6040516100d891906106c7565b60405180910390f35b3480156100ed57600080fd5b506100f6610278565b6040516101039190610703565b60405180910390f35b34801561011857600080fd5b50610133600480360381019061012e9190610653565b61029e565b005b34801561014157600080fd5b5061014a61039b565b005b600260009054906101000a900473ffffffffffffffffffffffffffffffffffffffff1681565b826000600260009054906101000a900473ffffffffffffffffffffffffffffffffffffffff1673ffffffffffffffffffffffffffffffffffffffff166374927c0983306040518363ffffffff1660e01b81526004016101d292919061072d565b602060405180830381865afa1580156101ef573d6000803e3d6000fd5b505050506040513d601f19601f82011682018060405250810190610213919061078e565b9050801561024d576040517fc707096500000000000000000000000000000000000000000000000000000000815260040160405180910390fd5b5050505050565b60008054906101000a900473ffffffffffffffffffffffffffffffffffffffff1681565b600160009054906101000a900473ffffffffffffffffffffffffffffffffffffffff1681565b826000600260009054906101000a900473ffffffffffffffffffffffffffffffffffffffff1673ffffffffffffffffffffffffffffffffffffffff166374927c0983306040518363ffffffff1660e01b81526004016102fe92919061072d565b602060405180830381865afa15801561031b573d6000803e3d6000fd5b505050506040513d601f19601f8201168201806040525081019061033f919061078e565b90508015610379576040517fc707096500000000000000000000000000000000000000000000000000000000815260040160405180910390fd5b600066b1a2bc2ec500009050610393868286883030610424565b505050505050565b600360009054906101000a900473ffffffffffffffffffffffffffffffffffffffff1673ffffffffffffffffffffffffffffffffffffffff163373ffffffffffffffffffffffffffffffffffffffff1614610422576040517f54efc98900000000000000000000000000000000000000000000000000000000815260040160405180910390fd5b565b61042c610538565b831115610465576040517f019c195900000000000000000000000000000000000000000000000000000000815260040160405180910390fd5b600073ffffffffffffffffffffffffffffffffffffffff168673ffffffffffffffffffffffffffffffffffffffff16036105305760008054906101000a900473ffffffffffffffffffffffffffffffffffffffff1673ffffffffffffffffffffffffffffffffffffffff16637da0b1fa848886898988886040518863ffffffff1660e01b81526004016104fd969594939291906107ca565b6000604051808303818588803b15801561051657600080fd5b505af115801561052a573d6000803e3d6000fd5b50505050505b505050505050565b600047905090565b600073ffffffffffffffffffffffffffffffffffffffff82169050919050565b6000819050919050565b600061058561058061057b84610540565b610560565b610540565b9050919050565b60006105978261056a565b9050919050565b60006105a98261058c565b9050919050565b6105b98161059e565b82525050565b60006020820190506105d460008301846105b0565b92915050565b600080fd5b60006105ea82610540565b9050919050565b6105fa816105df565b811461060557600080fd5b50565b600081359050610617816105f1565b92915050565b6000819050919050565b6106308161061d565b811461063b57600080fd5b50565b60008135905061064d81610627565b92915050565b60008060006060848603121561066c5761066b6105da565b5b600061067a86828701610608565b935050602061068b8682870161063e565b925050604061069c8682870161063e565b9150509250925092565b60006106b18261058c565b9050919050565b6106c1816106a6565b82525050565b60006020820190506106dc60008301846106b8565b92915050565b60006106ed8261058c565b9050919050565b6106fd816106e2565b82525050565b600060208201905061071860008301846106f4565b92915050565b610727816105df565b82525050565b6000604082019050610742600083018561071e565b61074f602083018461071e565b9392505050565b60008115159050919050565b61076b81610756565b811461077657600080fd5b50565b60008151905061078881610762565b92915050565b6000602082840312156107a4576107a36105da565b5b60006107b284828501610779565b91505092915050565b6107c48161061d565b82525050565b600060c0820190506107df600083018961071e565b6107ec60208301886107bb565b6107f960408301876107bb565b61080660608301866107bb565b610813608083018561071e565b61082060a083018461071e565b97965050505050505056fea264697066735822122082c7e96d14647557d767ff6e34021303dbd661c3751b11cd7b9fa38325ff8f3b64736f6c63430008100033",
  "devdoc": {
    "kind": "dev",
    "methods": {},
    "version": 1
  },
  "userdoc": {
    "kind": "user",
    "methods": {},
    "version": 1
  },
  "storageLayout": {
    "storage": [
      {
        "astId": 3352,
        "contract": "contracts/HarvestaStaking.sol:HarvestaStaking",
        "label": "borrowerOperations",
        "offset": 0,
        "slot": "0",
        "type": "t_contract(IBorrowerOperations)3952"
      },
      {
        "astId": 3355,
        "contract": "contracts/HarvestaStaking.sol:HarvestaStaking",
        "label": "hintHelpers",
        "offset": 0,
        "slot": "1",
        "type": "t_contract(IHintHelpers)4477"
      },
      {
        "astId": 3358,
        "contract": "contracts/HarvestaStaking.sol:HarvestaStaking",
        "label": "troveManagerHelper",
        "offset": 0,
        "slot": "2",
        "type": "t_contract(ITroveManagerHelpers)6324"
      },
      {
        "astId": 3360,
        "contract": "contracts/HarvestaStaking.sol:HarvestaStaking",
        "label": "yieldManagerAddress",
        "offset": 0,
        "slot": "3",
        "type": "t_address"
      },
      {
        "astId": 3364,
        "contract": "contracts/HarvestaStaking.sol:HarvestaStaking",
        "label": "totalStakedAssets",
        "offset": 0,
        "slot": "4",
        "type": "t_mapping(t_address,t_uint256)"
      }
    ],
    "types": {
      "t_address": {
        "encoding": "inplace",
        "label": "address",
        "numberOfBytes": "20"
      },
      "t_contract(IBorrowerOperations)3952": {
        "encoding": "inplace",
        "label": "contract IBorrowerOperations",
        "numberOfBytes": "20"
      },
      "t_contract(IHintHelpers)4477": {
        "encoding": "inplace",
        "label": "contract IHintHelpers",
        "numberOfBytes": "20"
      },
      "t_contract(ITroveManagerHelpers)6324": {
        "encoding": "inplace",
        "label": "contract ITroveManagerHelpers",
        "numberOfBytes": "20"
      },
      "t_mapping(t_address,t_uint256)": {
        "encoding": "mapping",
        "key": "t_address",
        "label": "mapping(address => uint256)",
        "numberOfBytes": "32",
        "value": "t_uint256"
      },
      "t_uint256": {
        "encoding": "inplace",
        "label": "uint256",
        "numberOfBytes": "32"
      }
    }
  }
}