{
  "address": "0x90c84237fDdf091b1E63f369AF122EB46000bc70",
  "abi": [
    {
      "inputs": [
        {
          "internalType": "address",
          "name": "_borrowerOperations",
          "type": "address"
        },
        {
          "internalType": "address",
          "name": "_hintHelpers",
          "type": "address"
        }
      ],
      "stateMutability": "nonpayable",
      "type": "constructor"
    },
    {
      "inputs": [],
      "name": "HarvestaStaking__NotEnoughEther",
      "type": "error"
    },
    {
      "stateMutability": "payable",
      "type": "fallback"
    },
    {
      "inputs": [
        {
          "internalType": "address",
          "name": "_asset",
          "type": "address"
        },
        {
          "internalType": "uint256",
          "name": "_collEther",
          "type": "uint256"
        },
        {
          "internalType": "uint256",
          "name": "_amountDebt",
          "type": "uint256"
        }
      ],
      "name": "openTrove",
      "outputs": [],
      "stateMutability": "nonpayable",
      "type": "function"
    },
    {
      "inputs": [
        {
          "internalType": "address",
          "name": "_asset",
          "type": "address"
        },
        {
          "internalType": "uint256",
          "name": "_collEther",
          "type": "uint256"
        },
        {
          "internalType": "uint256",
          "name": "_amountDebt",
          "type": "uint256"
        }
      ],
      "name": "openTroveWithHint",
      "outputs": [],
      "stateMutability": "nonpayable",
      "type": "function"
    },
    {
      "stateMutability": "payable",
      "type": "receive"
    }
  ],
  "transactionHash": "0x709f036473535f07849b9844cba62cbc914ba8b8a004aaf6594917402496e1e5",
  "args": [
    "0x9eB2Ce1be2DD6947e4f5Aabe33106f48861DFD74",
    "0x17244338034Bea1fA940779Bc769Ff01833406c4"
  ],
  "numDeployments": 1,
  "solcInputHash": "71c5ed0394d39a33228ef856788d4acc",
  "bytecode": "0x60c060405234801561001057600080fd5b5060405161049a38038061049a83398181016040528101906100329190610104565b8173ffffffffffffffffffffffffffffffffffffffff1660808173ffffffffffffffffffffffffffffffffffffffff16815250508073ffffffffffffffffffffffffffffffffffffffff1660a08173ffffffffffffffffffffffffffffffffffffffff16815250505050610144565b600080fd5b600073ffffffffffffffffffffffffffffffffffffffff82169050919050565b60006100d1826100a6565b9050919050565b6100e1816100c6565b81146100ec57600080fd5b50565b6000815190506100fe816100d8565b92915050565b6000806040838503121561011b5761011a6100a1565b5b6000610129858286016100ef565b925050602061013a858286016100ef565b9150509250929050565b60805160a05161033561016560003960005050600060f001526103356000f3fe60806040526004361061002d5760003560e01c806348652829146100365780637d64b5c01461005f57610034565b3661003457005b005b34801561004257600080fd5b5061005d6004803603810190610058919061022d565b610088565b005b34801561006b57600080fd5b506100866004803603810190610081919061022d565b61008d565b005b505050565b600066b1a2bc2ec5000090506100a78482848630306100ad565b50505050565b6100b561018c565b8311156100ee576040517f019c195900000000000000000000000000000000000000000000000000000000815260040160405180910390fd5b7f000000000000000000000000000000000000000000000000000000000000000073ffffffffffffffffffffffffffffffffffffffff16637da0b1fa848886898988886040518863ffffffff1660e01b81526004016101529695949392919061029e565b6000604051808303818588803b15801561016b57600080fd5b505af115801561017f573d6000803e3d6000fd5b5050505050505050505050565b600047905090565b600080fd5b600073ffffffffffffffffffffffffffffffffffffffff82169050919050565b60006101c482610199565b9050919050565b6101d4816101b9565b81146101df57600080fd5b50565b6000813590506101f1816101cb565b92915050565b6000819050919050565b61020a816101f7565b811461021557600080fd5b50565b60008135905061022781610201565b92915050565b60008060006060848603121561024657610245610194565b5b6000610254868287016101e2565b935050602061026586828701610218565b925050604061027686828701610218565b9150509250925092565b610289816101b9565b82525050565b610298816101f7565b82525050565b600060c0820190506102b36000830189610280565b6102c0602083018861028f565b6102cd604083018761028f565b6102da606083018661028f565b6102e76080830185610280565b6102f460a0830184610280565b97965050505050505056fea2646970667358221220586bf3d4770cdde3b8cd901bb785bb99d1244b27baa8784c4a8fdd3e36d8d54f64736f6c63430008100033",
  "devdoc": {
    "kind": "dev",
    "methods": {},
    "version": 1
  },
  "userdoc": {
    "kind": "user",
    "methods": {},
    "version": 1
  },
  "storageLayout": {
    "storage": [],
    "types": null
  }
}